:020000040800F2
:10000000905C00204D030008A9690008B75D000856
:10001000416700082514000829830008000000003B
:100020000000000000000000000000008D02000839
:100030009B1F000800000000E90200084D7900083D
:1000400067030008670300086703000867030008E8
:1000500067030008670300086703000867030008D8
:1000600067030008670300086703000867030008C8
:10007000751E000867030008811E0008670300085A
:10008000670300088D1E0008670300086703000867
:10009000711400086703000867030008670300087D
:1000A00067030008697A000867030008670300080F
:1000B00067030008757A00086703000867030008F3
:1000C0006703000867030008670300086703000868
:1000D000670300086703000867030008058300083A
:1000E0006703000867030008670300086703000848
:1000F0006703000867030008670300086703000838
:100100006703000867030008670300086703000827
:100110006703000867030008670300086703000817
:1001200067030008991E0008A51E00086703000861
:1001300067030008670300086703000867030008F7
:1001400067030008670300086703000867030008E7
:100150006703000867030008670300081D830008A1
:1001600067030008670300086703000867030008C7
:100170006703000867030008670300080000000029
:10018000670300086703000867030008097E00088A
:100190006703000867030008670300086703000897
:1001A00000000000000000006703000800F002F8F3
:1001B00000F05CF80AA090E8000C82448344AAF1A5
:1001C0000107DA4501D100F051F8AFF2090EBAE8A3
:1001D0000F0013F0010F18BFFB1A43F0010318477B
:1001E00094EB0000B4EB00000A444FF0000C10F850
:1001F000013B13F0070408BF10F8014B1D1108BFA5
:1002000010F8015B641E05D010F8016B641E01F844
:10021000016BF9D113F0080F1EBF10F8014BAD1C94
:100220000C1B09D16D1E58BF01F801CBFAD505E0B2
:1002300014F8016B01F8016B6D1EF9D59142D6D30C
:10024000704700000023002400250026103A28BF34
:1002500078C1FBD8520728BF30C148BF0B60704738
:100260001FB50EF003F81FBD10B510BD00F0BCFEA9
:100270001146FFF7F5FF0BF0FFF900F0DAFE03B4CB
:10028000FFF7F2FF03BC00F03FFF00002C4B1968A2
:100290000868B0E8F04F80F30988BFF36F8F4FF024
:1002A000000080F3118870470000000008480068D3
:1002B000006880F308884FF0000080F3148862B66D
:1002C00061B6BFF34F8FBFF36F8F00DF00BF00BF7A
:1002D00008ED00E0DFF80C00016841F470010160F6
:1002E000704700BF88ED00E0EFF30980BFF36F8F28
:1002F000134B1A681EF0100F08BF20ED108A20E97A
:10030000F04F106009B44FF0500080F31188BFF334
:100310004F8FBFF36F8F0CF063F94FF0000080F345
:10032000118809BC19680868B0E8F04F1EF0100F7A
:1003300008BFB0EC108A80F30988BFF36F8F704755
:10034000DC000020EFF3058070470000094880477B
:1003500009480047FEE7FEE7FEE7FEE7FEE7FEE7A7
:10036000FEE7FEE7FEE7FEE704480549054A064BBF
:1003700070470000117A0008AD0100089056002077
:10038000905C0020905800209058002070B40588A0
:100390000E884468D1F804C05368B54208D140883B
:1003A0004988884201BF11888D425188884203D014
:1003B00070BC6FF00200704705FB00F1880827D081
:1003C00094ED001ADCED000A94ED010ADCED011A4F
:1003D00031EE201AD4ED020A70EE211A9CED020AC9
:1003E00083ED001AC3ED011A94ED031ADCED031A34
:1003F00030EE800A401E71EE210A83ED020A04F1FC
:100400001004C3ED030A03F110030CF1100CD7D153
:1004100011F0030030D0B0F1004F30D200282BDDB6
:10042000211F1B1FACF1040210F0010F0AD091ED47
:10043000010AD2ED010A091D121D30EE200A83EDDA
:10044000010A1B1D400817D091ED010AD2ED010AE7
:10045000401E30EE200A83ED010A91ED020AD2ED32
:10046000020A01F1080102F1080230EE200A83EDD0
:10047000020A03F10803E7D170BC00207047B4EC16
:10048000010A401EFCEC010A30EE200AA3EC010A2E
:10049000F5D1F1E701804280436070472DE9F34FC9
:1004A00084B0049840680090486801900498B0F8BF
:1004B00000E04588DFEDFE0A00200290B0EE600A01
:1004C000AE4506D108884988884204BF71468645F2
:1004D00004D06FF0020006B0BDE8F08F01985FEA2B
:1004E000010C18BFB7EE001A3DD000BFBEEB0C01E7
:1004F00017D0B1F1004F80F01F82002911DD021FDB
:1005000011F0010F1CBFC2ED010A121D4B1006D0E5
:10051000C2ED010AC2ED020A08325B1EF8D100EBFF
:100520008100BCF10102A0EC011A19D0B2F1004F18
:1005300080F00882002A13DD031F12F0010F1CBF98
:10054000C3ED010A1B1D511008D000BFC3ED010A05
:10055000C3ED020A491E03F10803F7D100EB820044
:10056000BCF1010CC2D14FF000080395002D14BF5F
:10057000B0EE602A002000F0BF8100BF009908FBA8
:1005800005F001EB800B0199DBED002A01EB800007
:100590000346F0EE421AC64552D9AEEB0802ABEB69
:1005A000850112F0010F17D001EB850191ED000AD2
:1005B000B5EEC00AF1EE10FA07DDB4EEE10AF1EE95
:1005C00010FA09DDF0EE401A06E0B1EE400AF4EE52
:1005D000C01AF1EE10FAF5D3521031D001EB850CB0
:1005E0009CED000AB5EEC00AF1EE10FA05DDB4EE9E
:1005F000E10AF1EE10FA09DD06E0B1EE400AF4EE90
:10060000C01AF1EE10FA01D2F0EE401A01EBC5016A
:1006100091ED000AB5EEC00AF1EE10FA05DDB4EE78
:10062000E10AF1EE10FA09DD06E0B1EE400AF4EE5F
:10063000C01AF1EE10FA01D2F0EE401A521ECDD1DE
:10064000F5EEC01AF1EE10FA00F07381F5EEC02A53
:100650000126F1EE10FA0099D4BFB1EE620AB0EEB5
:10066000620AB4EE610AF1EE10FA1CBFAEEB0802AA
:10067000B2F1010C47D005FB08F201EB820292EDCA
:10068000001A00BFB0EE410A05FB06F4B5EEC00A41
:1006900000EB8404F1EE10FACCBFF0EE400AF1EE6C
:1006A000400AF4EE610AF1EE10FA28D1B5EB080C1D
:1006B00011D0BCF1004F7DD2BCF1000F0BDD00BFAB
:1006C00092ED000AD1ED000ABCF1010CE2EC010A46
:1006D000A1EC010AF4D129000ED0B1F1004F6AD289
:1006E000002909DD94ED000AD0ED000A491EE4EC72
:1006F000010AA0EC010AF5D1012002900BE0761C62
:10070000BCF1010CBED10298012804D0F5EEC02A3C
:10071000F1EE10FA7ED09BED000AB5EB08009A4688
:100720005946064622D0B0F1004F74D200281DDD94
:10073000091F10F0010F06D0F0EE400A80EEA01A5B
:1007400081ED011A091D401010D000BFD1ED010A42
:10075000401E80EE801A81ED011A91ED021AC1EE61
:10076000000AC1ED020A01F10801EFD1280026D0EC
:10077000B0F1004F7ED2002821DDAAF1040110F073
:10078000010F06D0D1ED010A80EE801A81ED011A29
:10079000091D401013D000BFD1ED010A401E80EEAC
:1007A000801A81ED011AD1ED020A80EE801A81EDE6
:1007B000021A01E0CBE0D6E001F10801ECD1DDE95D
:1007C00000124FF000095FEA0E0773D0C14504BF65
:1007D00001EB860102EB850274D091ED000ADC4644
:1007E0005046330035D01C46B6F1004F7ED2002C67
:1007F0002FDD0B1FABF1040C16F0010F0FD0F0EE44
:10080000400ADCED011AB0EE601A00EEE11A83ED49
:10081000011A01E08DE0B1E01B1D0CF1040C741015
:1008200015D000BFD3ED010A9CED011A40EE410A3C
:10083000C3ED010AD3ED020A9CED021A0CF1080C7B
:1008400040EE410AC3ED020A0833641EEAD101EB0F
:1008500086012B0036D0B3F1004F72D2002B31DD70
:10086000A2F1040CAAF1040013F0010F0CD0DCED8E
:10087000010A00E08BE090ED011A001D40EE410AF4
:10088000CCED010A0CF1040C5C1019D0DCED010A6E
:1008900090ED011A40EE410ACCED010ADCED020AAE
:1008A00090ED021A083040EE410ACCED020A03E056
:1008B000000000000DE005E0641E0CF1080CE5D11D
:1008C00002EB830201EB88017F1E09F101097FF42D
:1008D0007DAF009808F10108001D00900398401EAC
:1008E00003907FF44BAE0299012900E058E004BF69
:1008F00006B0BDE8F08F00BFB5EEC00AF1EE10FA09
:100900007FF4E9AD04990EFB05F3002B4A684FF024
:1009100000010BD902EB810C9CED000AB5EEC00A78
:10092000F1EE10FA02D1491C8B42F3D88B427FF4CE
:10093000D2AD6FF00400CEE5E0EC010A491EFBD118
:10094000EFE538E0E0EC010A521EFBD108E692ED3B
:10095000000AD1ED000ABCF1010CE2EC010AA1ECA5
:10096000010AF4D1B7E694ED000AD0ED000A491E61
:10097000E4EC010AA0EC010AF5D1BDE6D1ED000AD4
:10098000401E80EE801AA1EC011AF7D1EEE6D3EDFD
:10099000000A401E80EE801AA3EC011AF7D10EE780
:1009A000BCEC011AD1ED000A5B1E40EE410AE1ECFD
:1009B000010AF5D14DE7B0EC011AD2ED000A5B1E39
:1009C00040EE410AE2EC010AF5D17BE72DE9F04F58
:1009D00082B0466853680193058847884B88002099
:1009E00000900888874201BFB2F800C06545528870
:1009F00093421EBF6FF0020002B0BDE8F08F9FED82
:100A0000412A4FEA970EC7F3400B00BFDDE9000211
:100A100002EB800A4A6898464FF00009B0EE420A9D
:100A2000B4465FEA0E0025D092ED001ADCED001A04
:100A300002EB8302DCED010A01EE810A92ED001A5D
:100A400002EB8302401ED2ED001A02EB830200EE9D
:100A5000810A9CED021ADCED030A00040CF1100C73
:100A6000000C01EE210A92ED001A02EB830200EE67
:100A7000810AD9D117F0030026D0ACF10404A2EB0F
:100A8000830210F0010F08D002EB8302D4ED010ABB
:100A900092ED001A241D00EE810A5FEA0B0013D0CC
:100AA00002EB830CD4ED010A9CED001A02EBC302A9
:100AB000401E00EE810AD4ED020A92ED001A04F104
:100AC000080400EE810AEBD109F10100AAEC010A49
:100AD0001FFA80F9486800EB8902A8F101001FFAAB
:100AE00080F8B8F1000F99D1009806EB87061844FA
:100AF00080B20090681E05042D0C87D102B0002042
:100B0000BDE8F08F0000000070B405880E884468CE
:100B1000D1F804C05368B54208D14088498888425A
:100B200001BF11888D425188884203D070BC6FF09C
:100B30000200704705FB00F1880827D094ED001AE9
:100B4000DCED000A94ED010ADCED011A31EE601AC9
:100B5000D4ED020A70EE611A9CED020A83ED001AD0
:100B6000C3ED011A94ED031ADCED031A30EEC00A4E
:100B7000401E71EE610A83ED020A04F11004C3ED18
:100B8000030A03F110030CF1100CD7D111F003008C
:100B900030D0B0F1004F30D200282BDD211F1B1FB9
:100BA000ACF1040210F0010F0AD091ED010AD2ED70
:100BB000010A091D121D30EE600A83ED010A1B1D9A
:100BC000400817D091ED010AD2ED010A401E30EE27
:100BD000600A83ED010A91ED020AD2ED020A01F1E9
:100BE000080102F1080230EE600A83ED020A03F107
:100BF0000803E7D170BC00207047B4EC010A401E26
:100C0000FCEC010A30EE600AA3EC010AF5D1F1E731
:100C10002DE9F04F02884768B0F802804888D1F883
:100C2000049082B04FF0000A1646824207BF09883E
:100C300088456FF0020002B018BFBDE8F08F4FEAA0
:100C4000980B02EB42000190C8F34000CDF8000081
:100C500009EB8A01BBF1000F33D0019801EB820C44
:100C600001EB80043B46E64601EBC2054FEA0B0070
:100C700093ED000A401E81ED000A93ED010A01EB9D
:100C800002118CED000A93ED020A0CEB021C85EDBB
:100C9000000A93ED030A05EB021584ED000A04EB4C
:100CA000021403F11003E3D10EEB820000EB82008B
:100CB00000EB8201ABF10100504307EB0B1701EB96
:100CC000001118F0030C21D03B1FA1EB82011CF096
:100CD000010F06D093ED010A01EB82011B1D81ED8E
:100CE000000A009880B100BF93ED010A01EB820475
:100CF00001EBC20184ED000A93ED020A401E81ED72
:100D0000000A03F10803EFD107EB8C070AF1010099
:100D10001FFA80FA701E0604360C99D102B000202A
:100D2000BDE8F08F53EA020C00F069802DE9F04B2A
:100D30004FF00006002B1FBFB3FA83F503FA05F44A
:100D400024FA05F65E4012BF1643B2FA82F502FAA3
:100D500005F4C5F120051EBF22FA05FC44EA0C0487
:100D6000203556EA044C4FEA144418BF641C4FF077
:100D700000084FF00009904271EB030C39D30029B1
:100D800019BFB1FA81F701FA07F6B0FA80F700FA55
:100D900007F6C7F120071EBF20FA07FC46EA0C063B
:100DA0002037B6FBF4FCA7EB0507103F07F01F0B3D
:100DB000CBF120060CFA0BFB2CFA06F644BFB34627
:100DC0000026202FA4BF5E464FF0000B5BEA060C06
:100DD00008BF4FF0010B19EB0B09ABFB027C48EB92
:100DE0000608C01B06FB02CC0BFB03CC71EB0C010D
:100DF000C1E70B46024641464846BDE8F08B13B5B5
:100E00004FF000004FF00001AFF30080BDE81C4040
:100E1000704710B5431C02E010F8011B71B1810747
:100E2000FAD14FF0013202C88C1A8C4314EAC21175
:100E3000F9D0C01A0A0603D0C01E10BDC01A10BDDA
:100E40000A0401D0801E10BD0902FCD0401E10BD56
:100E5000032A40F2308010F0030C00F0158011F8E6
:100E6000013BBCF1020F624498BF11F801CB00F8BE
:100E7000013B38BF11F8013BA2F1040298BF00F812
:100E800001CB38BF00F8013B11F0030300F02580CF
:100E9000083AC0F0088051F8043B083A51F804CBF6
:100EA000A0E80810F5E7121D5CBF51F8043B40F8BC
:100EB000043BAFF30080D20724BF11F8013B11F8C7
:100EC00001CB48BF11F8012B24BF00F8013B00F80B
:100ED00001CB48BF00F8012B704710B5203AC0F095
:100EE0000B80B1E81850203AA0E81850B1E818502B
:100EF000A0E81850BFF4F5AF5FEA027C24BFB1E868
:100F00001850A0E8185044BF18C918C0BDE81040D8
:100F10005FEA827C24BF51F8043B40F8043B08BFE1
:100F20007047D20728BF31F8023B48BF11F8012BA8
:100F300028BF20F8023B48BF00F8012B70474FF054
:100F4000000200B5134694469646203922BFA0E819
:100F50000C50A0E80C50B1F12001BFF4F7AF090725
:100F600028BFA0E80C5048BF0CC05DF804EB890016
:100F700028BF40F8042B08BF704748BF20F8022B59
:100F800011F0804F18BF00F8012B70477047704771
:100F9000704710B500F008F8006810BD10B50446A1
:100FA00000F002F8046010BD004870472C56002085
:100FB0001FB584B000200A9C06AB04AA02A90094C5
:100FC000AFF3008018B1DDE9020108B010BD03489D
:100FD000204000F037F800200146F6E70000207CB2
:100FE000004870472C5600207546FFF7F9FFAE46C3
:100FF00005006946534620F00700854618B020B525
:10100000FFF7B2F9BDE820404FF000064FF00007AF
:101010004FF000084FF0000B21F00701AC46ACE8A0
:10102000C009ACE8C009ACE8C009ACE8C0098D460D
:10103000704710B50446AFF300802046BDE810406D
:10104000FFF71DB910B500F009F8BDE81040AFF387
:101050000080002801D000F057B8704710B5022872
:1010600003D0410103D50DA112E0002010BD010104
:1010700001D50FA10CE0C10001D511A108E081004C
:1010800001D512A104E0400001D513A100E0002128
:1010900015A000F03FF8012010BD0000496E7661F8
:1010A0006C6964204F7065726174696F6E00000036
:1010B000446976696465204279205A65726F000040
:1010C0004F766572666C6F7700000000556E646540
:1010D00072666C6F77000000496E657861637420FA
:1010E000526573756C7400005349474650453A2069
:1010F00041726974686D65746963206578636570B1
:1011000074696F6E3A20000001491820ABBEFEE7FB
:101110002600020070B505460C460A2000E06D1C52
:1011200000F011F835B128780028F8D102E0641CED
:1011300000F009F814B120780028F8D1BDE870401B
:101140000A20AFF3008008B569468DF8000003203F
:10115000ABBE08BD7047000010B504462DED028BF4
:10116000B0EE408AB0EE600A01F050FC84ED0C8ACB
:10117000204601F079FA94ED130AD4ED140A94EDA7
:10118000031A204600EE810A84ED130A94ED000A4A
:10119000D4ED080A30EE600A84ED140A94ED010AD9
:1011A000D4ED090A30EE600A84ED150A05F0FEFB65
:1011B00094ED160A9FED051ADFED050A01F00EFE0B
:1011C00084ED170ABDEC028B10BD0000000096C331
:1011D00000009643DFED2F0A9FED2F2AC0ED020A93
:1011E00080ED032A0F2202829FED2C1ADFED2C2ABC
:1011F00080ED0F1ADFED2B3AC0ED102A9FED2A0A81
:10120000C0ED113A9FED295A80ED180ADFED281A3A
:1012100080ED195AC0ED1A1A80ED1B0A0522A0F8BC
:101220008020B1EE044A9FED233A80ED214A80ED03
:101230001C3AF7EE084ADFED201AC0ED1D4ADFED3B
:101240001F5AC0ED1E1AC0ED125AC1ED020A81EDFF
:10125000032A0A20088281ED0F1AC1ED102AC1ED80
:10126000113A81ED180A81ED195AB7EE000ADFED47
:10127000140A81ED1A0AC1ED1B0AA1F8802081ED44
:10128000214A81ED1C3AC1ED1D4AC1ED1E1A81EDC6
:10129000120A7047007C92486F12033B0000FA4329
:1012A00080C2A2470024F4496F12833A0AD7A33CB4
:1012B00033331340CDCC4C3F0000484200000000C7
:1012C000F7CC123930B50C4605000CD0022C0AD9E7
:1012D0000548A11E0288284601F010FE291901F8D0
:1012E000020D000A487030BD0C00002030B50C46DD
:1012F000050008D0022C06D9FF22611E01F014FE61
:10130000291901F8010C30BD0348C188028B114432
:10131000C180002101837047500D002070B50D463B
:101320002DED048B040061D0DFED330A30EEC00AEE
:10133000DFED320A20EE200ADFED310A20EE208AAE
:1013400018EE100A0CF0DCFE41EC100B08F03CFE2D
:1013500051EC100B0BF03EFB00EE100A42F248601D
:10136000454300EE905A644318EE100AB8EE601A36
:10137000F7EE000A40EE400A21EE201A00EE904AF5
:10138000F8EEE01AC1EE210A30EE809A0CF0B8FEB9
:1013900041EC180B19EE100A0CF0B2FE41EC100BE8
:1013A00007F05EFE53EC182B51EC100B0BF074FCA5
:1013B0009FED141B53EC112B0CF0A4F89FED131BA5
:1013C00053EC112B0CF09EF89FED121B53EC112BDC
:1013D0000BF094FD9FED111B53EC112B0CF062FAF6
:1013E0000BF04AFFBDEC048B00B270BDBDEEC00A2D
:1013F00010EE100AF6E7000000A0D945DB0F4940C7
:1014000000008039000000000000E03F0000000004
:101410000000B04000000060FB2109400000000017
:101420000034BB40FEE7000001490020086070471F
:101430003418004000B58BB000200090019002905D
:1014400003900490059006900120079008900E20CC
:1014500009906946054801F071FF00B1FEE70221DD
:10146000024801F0D7FE0BB000BD00009803002039
:10147000014802F0AEB80000980300201CB500211E
:101480000091019108494FF4047201230A60082277
:101490000A61010A8DF800108DF801006A460249C0
:1014A000024801F0C9FE1CBDA415002098030020CD
:1014B00008B50BF0ADF90A4D0A4C4FF6FF760090D7
:1014C000642168460AF0E4FBA88F00EBC00101EB41
:1014D000001006EA80002080FFF7D0FFF0E7000050
:1014E000840F0020CA000020174ADFED180A92ED91
:1014F000010A20EE200ABDEEC00A10EE100A01B269
:101500001348418092ED030ABDEEC00A10EE102A86
:10151000028040F69802914203DC4FF4E16291426E
:1015200001DA828000E0818040F26C72914201DA3F
:10153000042106E040F63402914201DA032100E082
:101540000221C16170470000941500200000C842CC
:10155000D815002010B5F0EE601A2DED028BB0EE1C
:10156000408AD0ED060A0446DFED3C8AB1EE601AEF
:10157000B0EE610A01F032FC30EE480A4FF08B41C8
:10158000DFED370A10EE100A84ED0C0A884202DD06
:1015900030EE600A07E0B1EE401A11EE100A884200
:1015A00003DD30EE200A84ED0C0A01F091FB10EE11
:1015B000100A2C49884206DDB1EE080A84ED000AC3
:1015C000C4ED028A24E010EE100A2749884206DDA5
:1015D000B1EE060A84ED000A9FED240A16E010EE33
:1015E000100A2349F1EE040A884204DDC4ED000A22
:1015F0009FED200A0AE010EE100A1F499FED1F0A16
:10160000884201DCF1EE020AC4ED000A84ED020A10
:10161000D4ED000A94ED0C0A94ED0B1A60EE800AEA
:1016200030EE410A94ED021A20EE010A30EE800AF3
:1016300084ED080AD4ED030AB1EE601A01F0CEFB86
:1016400084ED080A94ED0B0A84ED0A0A94ED0C0A65
:1016500084ED0B0ABDEC028B10BD00000000000001
:101660000000004600404E4500800945000016433A
:101670000080A244000048430080094400005C430D
:101680000748807E48B90748C07A032805D0064835
:10169000807C012801D000207047012070470000A5
:1016A0006C15002070080020640F00202DED0C8BBD
:1016B00082B00BF0ADF8DFF8E4B3DFEDF9AA9FEDEF
:1016C000F99B9FEDFABA9FEDFACA9FEDFAAADFF8EF
:1016D000ECA3DFF8E493DFEDFABAAAF18C0505F18B
:1016E00070080090042168460AF0D2FA04F070FBFA
:1016F000F44E307C00287CD0BAF91C0000EE100AB1
:10170000B8EEC00A89ED080ABBF9081041F2315061
:101710000844C11700EBD1416FF30C01401A00EEF1
:10172000100A5446F8EEC00A80EEAA0A8AED050AAD
:10173000B5F90230B5F91E20B5F93A10981AB5F985
:1017400056700844C01B4FEAE07C00EB9C70801090
:10175000AAF802009818401AC01BC11700EB91703C
:10176000BDEEC00A8010208110EE100A0BF056FE6C
:1017700041EC1D0BB6F902000BF050FE41EC180BCA
:10178000B6F900000BF04AFE41EC100BB0EE481A1F
:10179000F0EE681A07F080FF53EC192B51EC100B98
:1017A0000BF0B0FE53EC1D2B0BF076FA0BF064FD42
:1017B0004FF4B47190FBF1F201FB120000EE100A3D
:1017C000B8EEC00A84ED030AB4F908000BF026FE57
:1017D00041EC180BB4F902000BF020FE41EC100BA9
:1017E000B0EE481AF0EE681A07F056FF51EC100BF5
:1017F00000E00FE00BF040FD00EE100AB8EEC00A6A
:1018000020EE0B0A84ED040A307C01281AD094EDF6
:10181000050A52E0AC4800224FF40051008800F65F
:10182000CF2000B201F011FB00EE100ABBF9080056
:10183000F8EEC00A00EE100A9F48B8EEC00AFFF7A3
:1018400089FE61E7B4F91C00B0F5FA6F7ED0A0F50F
:101850005061AC3925D1608810FB00F1208910FB64
:1018600000100BF0DBFD41EC100B08F011FC9FEDBC
:10187000971B51EC100B53EC112B0BF043FE0BF0AC
:10188000A9F800EE100AB0EE4C1ADFED920A01F052
:10189000A5FA30EE0A0A00BFBDEEC00A10EE100A2B
:1018A0002083B4F91800D4ED050A00EE100AB8EE52
:1018B000C00A30EE800A84ED050A10EE100A86494F
:1018C000884205DDDFED850A30EE600A84ED050A09
:1018D00020EE2B0A84ED050A10EE100A0CF010FC25
:1018E00041EC100B08F070FBB0EE408AF0EE608A1D
:1018F000B6F902000BF092FD53EC182B0BF002FE30
:1019000041EC1D0B60690CF0FBFB41EC100B07F088
:10191000BBFFB0EE408AF0EE608AB6F900000BF033
:101920007DFD53EC182B0BF0EDFD53EC1D2B0BF054
:10193000B3F90BF0A1FC208060690CF0E1FB41ECF5
:10194000100B07F0A1FFB0EE408A00E0CBE0F0EE14
:10195000608AB6F902000BF061FD53EC182B0BF016
:10196000D1FD41EC1D0B60690CF0CAFB41EC100B82
:1019700008F02AFBB6F90000B0EE408AF0EE608A6B
:1019800040420BF04BFD53EC182B0BF0BBFD53EC1E
:101990001D2B0BF081F90BF06FFC00B2E080B4F965
:1019A000001099ED081A0A1800EE102AD6ED031A55
:1019B000B8EEC00A70EE010A96ED020A60EE800AE7
:1019C00060EEA10AFDEEE00A10EE903A2B80431A79
:1019D00000EE903A081AF8EEE00A70EE810A60EE26
:1019E000800A60EEA10AFDEEE00A10EE903A00EEE9
:1019F000900AAB83F8EEE00A70EE810A60EE800A8E
:101A000060EEA10AFDEEE00A10EE900A288750422F
:101A100000EE900AF8EEE00A70EE810A20EE800AED
:101A200020EE210ABDEEC00A10EE100AA5F85400FF
:101A300005F034F900F0D4FA04F0C4FA284E00247A
:101A400008EB840090ED020ABDEEC00A10EE100A09
:101A500002B2C4EBC40005EB8007391D35F9200044
:101A600001F0CCF9B7F9040000EE100AB7F9020052
:101A7000F8EEC00A00EE100A06EB8410B8EEC00AB9
:101A800004F0C4FF641CE4B2042CD9D3FFF7F8FDC2
:101A900040B300231A461946184663E0500D002053
:101AA000610BB64100000020DCA54C40E12E6542F0
:101AB0000000000000000442AC140020280F0020A9
:101AC00003FA8E3C640F0020B2000020000000806A
:101AD000976E923F000014420000B4430000B443EC
:101AE0000411002022E0608810FB00F1208910FB27
:101AF00000100BF093FC41EC100B08F0C9FA9FEDBD
:101B00001B1B51EC100B53EC112B0BF0FBFC0AF0E0
:101B100061FF00EE100AB0EE4C1AF0EE4A0A01F036
:101B20005DF9F2EE060A30EE200AB5E696ED380AC7
:101B3000BDEEC00A10EE100A96ED280A03B2BDEE03
:101B4000C00A10EE100A96ED180A02B2BDEEC00AE5
:101B500010EE100A96ED080A01B2BDEEC00A10EEB2
:101B6000100A00B204F09CFABCE50000000000601E
:101B7000E3A58B3F2DE9F0470024DDE90A65DDE9A7
:101B80000879DDF830A000BF11F804C0C4F10208E4
:101B9000641C00F808C0032CF6DB10F8031F21F0CA
:101BA0003801103162F302010170018863F3891179
:101BB0000180417867F385014170828869F30902E9
:101BC0008280B0F8051066F38C01A0F80510C1887A
:101BD00065F34F11C18002896AF309020281BDE8F1
:101BE000F08700002DE9F0472DED028B04F04AFE4E
:101BF000934EDFF850820025B07C01285ED0A8F813
:101C00000C50F07C0126904C012878D06574052199
:101C10008E4804F08DF907468C480521103004F0F9
:101C200087F947EA001040F6C419C9F1000A0228F2
:101C300067D0202868D02580844805210C3004F026
:101C400077F9074681480521143004F071F947EA15
:101C5000001002285BD020285CD065807B480521DD
:101C6000343004F065F9012857D0022855D0257486
:101C700076480521383004F05BF9B7EE008A022877
:101C80004DD084ED038A71480521001F04F050F9FE
:101C900007466E480521001D04F04AF947EA001185
:101CA0006B48DFF8B09102293ED012293CD02029A0
:101CB0003DD021293BD0E574112136E098F8010090
:101CC0004446012803D1A07808B9A08998B1A08919
:101CD000401C80B2A0814B2893D9E0880BF0C2FB56
:101CE0009FED5D1B53EC112B0BF00CFC0BF028FB54
:101CF000A07086E703E0A07988F8020081E76674A7
:101D000085E7A4F8009097E7A4F800A094E7A4F86A
:101D100002A0A3E7A4F80290A0E72674A8E7B6EE15
:101D2000000A84ED030AAEE7EE21417001E0A9F854
:101D3000065046480521183004F0FAF8012802D070
:101D400002280CD0A57441484FF4FA7A5146243049
:101D500004F0EEF8012809D0022809D101E0A674A8
:101D6000F1E700F063FF88F8015001E088F80160B6
:101D700036480521203004F0DBF84FF48067012855
:101D800006D13748B0F9001079B1B94200D10580C9
:101D90002E4805211C3004F0CBF83249012806D02A
:101DA0004868B84206D10D700DE00780F0E70E706C
:101DB0004D6008E00A78012A05D1401C48602A4994
:101DC000C888001DC88021485146083004F0B0F88A
:101DD0002649012803D0022804D1152000E03C2028
:101DE0000968086419480521283004F0A1F8204941
:101DF0004FF4FA6202280ED084ED028A8A831348D7
:101E000005212C3004F094F8012800D12675BDEC92
:101E1000028BBDE8F087B9F9020040F26C7398427A
:101E2000EDDD207C012805D08A83B0EE000A84ED28
:101E3000020AE4E740F6AC50888384ED028ADEE7CC
:101E400070080020EC0D0020640F00208A0800209C
:101E5000D8090020D81500209A9999999999D93FC5
:101E6000B2000020B4000020500D0020A804002083
:101E7000280F0020014801F063BE00000807002081
:101E8000014801F05DBE000068070020014801F034
:101E900057BE000048060020014801F051BE000076
:101EA000C8070020014801F04BBE0000A806002032
:101EB00001680A4BCAB2103AA3FB02321209084B5E
:101EC0009B5CC365032A04D96FF30901091D816571
:101ED00002E06FF309018165806D7047ABAAAAAA81
:101EE0009CE90008014600208A6A8B69002B0FD00C
:101EF000B3F5005F1DD08AB3012A30D0022A2ED05C
:101F0000032A04D1C96A11F0807F00D001207047F4
:101F10001AB1012A07D0022AF9D1C96A11F0807FCB
:101F2000F5D001207047C96AB1F1C07FFAD1012014
:101F300070475AB1012A0BD0022A07D0032AF7D1E1
:101F4000C96AB1F1C07FF3D1012070470120704709
:101F5000C96A11F0807FFAD001207047FFE70120A5
:101F6000704710B4D0F800C0DCF8004024F480249E
:101F7000CCF80040D0F800C0CCF804308368402B87
:101F800005D0036899600068C26010BC70470368A0
:101F90009A600068C16010BC7047704708B50AF0CD
:101FA00037FC4FF400650C4EDFF830804FF4FA74C4
:101FB000EF0000902146684609F06AFE2946304647
:101FC00002F000F93946404602F0FCF805F0F2FE56
:101FD00000F084FCEEE70000001002400014024014
:101FE0002DE9F0414C4F4D4CDFF83481397C4D4D9B
:101FF00041F6583001297DD02083002684F82460E2
:1020000094F82400C0EBC00035F9200000EE100A5F
:10201000B8EEC00A00F05CFEB4F9180000EE900AB9
:10202000F8EEE00AB4EEE00AF1EE10FA1EDD94F8E4
:102030002400C0EBC00035F9200000EE100AB8EE15
:10204000C00A00F045FEB4F9180000EE900AB8EEA0
:10205000E01AC0EE010AC4ED080A94ED070AF4EE96
:10206000C00AF1EE10FA01DDC4ED070A94F824006D
:10207000401CC0B284F824000428C1D394ED070AA0
:1020800010EE100AB0F17E5F20D084F8246000BF0B
:1020900094F82400C0EBC001401C35F92120C0B2E7
:1020A00000EE902A0428F8EEE00A80EE801AFDEE99
:1020B000C10A10EE902A25F8212084F82400E7D3E5
:1020C000B7EE000A84ED070A84ED080A387C01287F
:1020D0000DD1B8F91C100020C0EBC002401C35F82F
:1020E0002230C0B20B4425F822300428F4D3BDE8D6
:1020F000F081FFE7B8F91C20801A20835FF0000010
:10210000C0EBC001401C35F82130C0B29B1A25F845
:1021100021300428F4D370E7640F00206C150020F0
:10212000280F00209C0E00202DE9F0478846254905
:102130000646089F8878244C401C8870A521217091
:10214000512161700025A570E0709A4691460521E5
:102150002046FFF7CBF8012161710320A071E071E7
:102160001A4821720F2290F83E006072A572E07248
:102170002173314604F10D00FEF76AFE0F2241463D
:1021800004F11C00FEF764FE0F22494604F12B0007
:10219000FEF75EFE0F22514604F13A00FEF758FEAC
:1021A0000F22394604F14900FEF752FE5A2120461B
:1021B000FFF788F82146BDE8F0475A22044803F0AB
:1021C000CDBD00000C1600206C100020840F0020F4
:1021D000040600202DE9F04186B04FF4F87440F277
:1021E000BA30CDE903400626009640F2A731032518
:1021F0000594CDE90151092301227AA17A4803F01F
:10220000A5FE4FF47077A01FCDE9047040F2D711FE
:10221000CDE902717448CDE900650923012273A15B
:102220000F3003F093FE40F2D930CDE90340009621
:10223000B91D0594CDE901516B48092301226CA118
:102240001E3003F083FE40F20920CDE90470A11D89
:10225000CDE902716448CDE900650923012265A139
:102260002D3003F073FE0427082540F263300097F9
:10227000CDE90305822605245B48CDE901462B46BE
:1022800001225DA13C30FFF775FC40F2153000974C
:10229000CDE903055448CDE901460823012257A1A1
:1022A0004B30FFF767FC40F2C7200097CDE90305EC
:1022B0004D48CDE901460823012251A15A30FFF7CC
:1022C00059FC40F279200097CDE903054648CDE955
:1022D0000146082301224BA16930FFF74BFC40F275
:1022E000A4664FF42A71CDE904610020CDE9000411
:1022F0004FF41B78CDE902683B480823012242A134
:10230000783003F023FE4FF4967040F25641CDE949
:1023100003010590022540F22A320F200095CDE9F5
:10232000010231480723012238A1873003F00EFE55
:1023300002AF40F2DA234FF4D76240F2C6214FF4E5
:10234000D26087E80F002848052344380122006A3C
:10235000CDE9000424482EA1963004F0FBFD4FF493
:10236000E1610095CDE9014114271F48CDE90387BC
:102370000523012227A1A530FFF7FCFB4FF40270D3
:10238000CDE902601848CDE900540523012222A1BD
:102390000497B430FFF7EEFB4FF4C8610095CDE928
:1023A00001411148CDE90387052301221BA1C33058
:1023B000FFF7E0FB4FF4AF604FF4FA72CDE9020291
:1023C0004FF41671CDE904010720CDE9005006480D
:1023D0000523012212A1D23003F0B8FD06B0BDE8FA
:1023E000F0810000303931001C16002030393200F5
:1023F0003039330030393400303731003037320073
:102400003037330030373400303631003036320068
:10241000303531003035320030353300303534005E
:10242000303535002DE9FF5F06460EA88A4690E854
:1024300080032A492A4C002588789346401C8870DE
:10244000A52121706F216170A570E07005212046E3
:10245000FEF74CFF012161710320A0710420E0719F
:10246000204821720F2290F83E006072A572E0723F
:102470002173314604F10D00FEF7EAFC0F225146AC
:1024800004F11C00FEF7E4FC0F22594604F12B0076
:10249000FEF7DEFC0F2204F13A000399FEF7D8FCA8
:1024A0000F22394604F14900FEF7D2FC0F224146C3
:1024B00004F15800FEF7CCFC0F22494604F16700F6
:1024C000FEF7C6FC78212046FEF7FCFE04B021464C
:1024D000BDE8F05F7822044803F040BC0C160020F1
:1024E0006C100020840F0020040600202DE9F0412C
:1024F0000F461B4906461B4C88780025401C8870F7
:10250000A521217024216170A570E070052120466D
:10251000FEF7ECFE012161710320A0710220E07141
:10252000114821720F2290F83E006072A572E0728D
:102530002173314604F10D00FEF78AFC0F22394663
:1025400004F11C00FEF784FC2D212046FEF7BAFEA4
:102550002146BDE8F0412D22044803F0FFBB0000F6
:102560000C1600206C100020840F002004060020B0
:10257000234810B5B0F904204FF4C870A2F5E16209
:1025800092FBF0F11F4830310170282192FBF1F3EA
:102590000A2193FBF1F401FB143330334370D3175A
:1025A00002EB9372921092FBF1F301FB1322303293
:1025B0008270154AC1700171B2F924204FF47A7308
:1025C00092FBF3F393FBF1F401FB143330334371CB
:1025D000642392FBF3F393FBF1F401FB14333033E8
:1025E000837192FBF1F393FBF1F401FB143330336D
:1025F000C37192FBF1F301FB13213031017210BD65
:10260000D8150020FD160020500D002015481A2274
:1026100010F8031F41F038010170018821F4707136
:1026200080310180B0F8011062F38E11A0F8011022
:102630004188022262F3CF11418081884FF4AF724A
:102640006FF30901C91C8180B0F8051062F38C0199
:10265000A0F80510C18840F2852262F34F11C180B5
:10266000704700002D17002010B590ED080AD0ED3E
:102670000C0A044630EE600AF6EE000A80ED0B0A02
:1026800090ED031A00F04EF984ED0D0A94ED031A53
:1026900094ED0B0AF5EE000A00F044F984ED0E0A01
:1026A00094ED091AD4ED0F1A94ED0B2AF0EE410ABD
:1026B00041EEC20A94ED082AD4ED031A01EEA02AD5
:1026C00084ED082AD4ED0A0AD4ED102A94ED0D3ACF
:1026D000B0EE602A02EEC32AD4ED122A94ED173A26
:1026E00002EE832A01EE821A84ED091A94ED111A82
:1026F00021EE400A41EE800AC4ED0A0A10BDFEE751
:102700000022002905D001291DD002291ED04FF436
:1027100040720B2800D9001D0E490B6823F440734A
:102720000B600B681A430A600A6822F0F8020A601C
:102730000A68022343EAC00010430860086840F4B6
:102740008030086070474FF48072E2E74FF4007207
:10275000DFE70000103C0240064A136823F4407390
:10276000136013681360136843F001031360017072
:1027700070470000103C02400B49D1F800C02CF417
:10278000407CC1F800C0D1F800C04CF4407CC1F8D6
:1027900000C0D1F800C04CF0010CC1F800C00260CC
:1027A000BFF36F8F43607047103C0240074A1368C5
:1027B00023F440731360136843F480731360136849
:1027C00043F001031360018070470000103C024099
:1027D000074A136823F440731360136843F40073CB
:1027E0001360136843F00103136001607047000039
:1027F000103C02401F49086810F0100F1E4805D019
:10280000C26942F01002C26110220A600A6812F026
:10281000200F05D0C26942F00802C26120220A607E
:102820000A6812F0400F05D0C26942F00402C2618A
:1028300040220A600A6812F0800F05D0C26942F097
:102840000202C26180220A600A6812F4807F06D008
:10285000C26942F00102C2614FF480720A600A68E4
:1028600012F0020F05D0C26942F02002C2610220BC
:10287000086070470C3C02401C19002070B50446EB
:1028800014490020C86101F0ADFC0646124D2868CD
:1028900010F4803F0ED0B4F1FF3F07D024B101F017
:1028A000A1FC801BA04201D9032070BD286810F450
:1028B000803FF0D1286810F0010F01D0012028607E
:1028C000286810F4F97F03D0FFF794FF012070BD52
:1028D000002070BD1C1900200C3C02402DE9F04185
:1028E0000E48002586B0DFF8388005802C466F46FC
:1028F000861C00BF36F8140027F8140026F8145080
:1029000038F81410884202D80CB901F03DFD641C5F
:10291000E4B2082CEED306B0BDE8F0819C000020A4
:1029200040E9000810B52DED048BB0EE408AF0EEC2
:10293000608A38EE010A04F039FF034638EE410A96
:1029400004F034FFB7EE000A181A00EBD07070EEF6
:10295000680A40F34F04B0EE410A07F003F8F0EEC6
:10296000400A00EE104AB8EEC00A28EE000A80EED7
:10297000209AB0EE480A00F0ABF9F0EE680A06F0D3
:10298000F1FFF0EE400AB0EE480A04F00FFF00EE4F
:10299000100AC4F10100B8EEC00A60EE800A00EE31
:1029A000100AB8EEC00A00EE809AB0EE490ABDECFB
:1029B000048B10BD10B5124C00224FF40051B4F935
:1029C000060000F042FA00EE100AE080B4F90E00B2
:1029D000F8EEC00A00EE100A0A48B8EEC00A04F089
:1029E00015F808488038D0ED280AB4F90200BDE88F
:1029F000104000EE100A0448B8EEC00A04F006B811
:102A0000880D0020441300208412002010B50446D5
:102A10002DED048BD0ED000A008A94ED031A70EEC0
:102A2000C00A00EE100AB8EE400A20EE010A84ED5A
:102A3000050A94ED021A21EE001A61EE008A94ED67
:102A4000011A20EE018A30EE889AB0EE490A00F0B1
:102A50003FF9B2EE001AF0EE680A40EE010A20EEED
:102A6000A80A10EE100A0BF04BFB41EC100B07F01C
:102A70000FFB51EC100B09F0ADFF00EE900AB0EE29
:102A8000490A04F093FE00EE100A70EEE80AF0EE38
:102A9000481AB8EEC00A20EE200AF6EE000A40EE10
:102AA000201AF0EE680AB0EE490A00F0FFF800EED6
:102AB000100A78EE090AB8EEC00A20EE202AF0EEDD
:102AC000680AB0EE490A00F0F1F8C0F1010000EE2A
:102AD000100AD4ED020AB8EEC00A01EE802A82EE96
:102AE000280A60EEC01AF0EE680AB0EE420A00F062
:102AF000DDF800EE100AB8EEC00A61EE801AB0EE02
:102B0000420A04F053FE00EE100AD4ED020AB8EEB9
:102B1000C00A60EE202AF0EE680AB0EE420A00F029
:102B2000C5F8C0F1010000EE100AB8EEC00A42EE8E
:102B3000C01AC4ED061A94ED001AD4ED030A94ED00
:102B4000010A00EE801A00EEA10A84ED001A84ED5D
:102B5000010ABDEC048B10BDD0ED071A90ED001AF0
:102B600090ED082A21EE811A02EE201A80ED011A5A
:102B7000D0ED0A0A90ED052A41EE820AC0ED030A63
:102B8000D0ED0B1A30EEA12AC0EE821A30EE412AA7
:102B9000B0EE410AB7EE001AC0ED061A31EE611A26
:102BA00001EE820A61EE200A80ED020AC0ED040AFD
:102BB000C0ED050A80ED000A704700009FED0A1A7B
:102BC00080ED001A80ED051A80ED0A0AC0ED0B0AAF
:102BD000B7EE000A80ED070A80ED081A80ED0C0AB6
:102BE00080ED011A704700000000000010B501F0F0
:102BF000A9F90549F320086002210B20FFF780FDA9
:102C0000BDE8104001F054B90C3C024070B50C46D0
:102C1000054601F097F92246E3172946022001F004
:102C200051F9BDE8704001F043B9000006489FED3E
:102C3000050A064980ED000A4FF47A700860091D04
:102C40000860704700007A4410000020340C0040F7
:102C500000EE100A10B59FED111ADFED110AB8EE63
:102C6000C00A00F0BBF8BDEEC00A0E4910EE100A13
:102C7000B6EE000A00B200F073F80A480A4990ED77
:102C8000000ABDEEC00A10EE100A00B2086010EE95
:102C9000100A091D00B2086010BD000000007A444F
:102CA0000000E14410000020340C0040B0EE401A57
:102CB00000B531EE200A04F079FD034631EE600ADA
:102CC00004F074FD181A00EBD07040F34F0000BD03
:102CD000B5EEC00AF1EE10FA01DAB1EE400A704723
:102CE00010B50346B1F90000181A00EE100AB8EE4C
:102CF000C00AFFF7EDFF10EE100A4FF0FF34B0F1FD
:102D00008B4F0888A3EB000000B215DD00F093F8AC
:102D1000A04207D001280CD1B1F90000C41A04F573
:102D2000005419E0B1F900001C1A04F500540CE03D
:102D3000088010BD0B8010BD00F07DF8A04208D0C7
:102D40000128F8D1B1F900001C1A9442F2DD1044B8
:102D5000EEE7B1F90000C41A9442EBDD801AE7E710
:102D6000024600EE902A00B5F8EEE00A91ED001A56
:102D700070EEC10AFDEEE00A10EE900A00B200F01B
:102D80005AF8B0F1FF3F14D0012811D101EE102AFA
:102D9000D1ED000AB8EEC11A31EE601AB4EEC01AD5
:102DA000F1EE10FA15DD30EE800A00BF81ED000A69
:102DB00000BD01EE102AD1ED000AB8EEC11A30EEC6
:102DC000C11AB4EEC01AF1EE10FA02DD30EEC00AFC
:102DD000ECE700EE102AB8EEC00AE7E7B4EEE00A2E
:102DE000F1EE10FA02DDB0EE600A7047B4EEC10AEF
:102DF000F1EE10FAF9D2B0EE410A704710B5034671
:102E00000888181A00B200F016F8B0F1FF3F0AD097
:102E1000012807D1B1F900001C1A944201DD1044C9
:102E200007E00B8010BDB1F90000C41A9442F8DD30
:102E3000801A088010BD002802DA4FF0FF3070477A
:102E40000120704704F0CAFCFCE7884204DD90FBD7
:102E5000F1F201FB120070479042FCDA801A08443C
:102E600000B2704770B5B0F90820C47CD11702EBEE
:102E7000916324B90121C174991101828281B0F951
:102E80000C404FF48055161B90F91210AE4201DD34
:102E9000491E03E0A41AAC4201DD491C817490F97B
:102EA0001210002901DA232102E0232901DD00218B
:102EB000817490F91210DFED100ACC014FF490519B
:102EC00094FBF1F501FB154404EBA313048A1B1BCF
:102ED0001BB203F5905393FBF1F401FB143100EEA8
:102EE000101AB8EEC00A20EE200ABDEEC00A10EE9D
:102EF000101AC181828170BD398EE33F10B558B17F
:102F0000084C491E0BD310F8013B5340DBB234F898
:102F1000133083EA1222F4E74FF6FF7010BD10461B
:102F200010BD000044E6000810B5054C04E000BFE9
:102F300010F8013B5340E25C491EF9D2104610BD27
:102F400044E5000810B5114C114894ED0C0ABDEE93
:102F5000C00A10EE101AC18010EE101A4181818C47
:102F60004184C1840B4803F049FE0B4803F046FE40
:102F70000A4803F043FE0A4894ED0C0A80ED060A65
:102F80009FED080A80ED070A10BD0000D808002058
:102F9000500D002004130020441200202C150020A6
:102FA000640F002000A0D94570B51E4D2DED028B99
:102FB00005F15404B5F924009FED1B8A00EE100AB8
:102FC0001A48F0EE480AB8EEC00A84ED0A0AFFF784
:102FD000C3FD84ED090AB5F9220000EE900AF8EE6F
:102FE000E00A30EEC00AF0EE480A84ED0B0AB5F9AB
:102FF0001E0000EE100A0E48B8EEC00A84ED0D0A5D
:10300000FFF7AAFD84ED0C0AB5F91C0000EE900A4A
:10301000F8EEE00A30EEC00A84ED0E0ABDEC028B39
:1030200070BD0000500D002000000000801800203E
:10303000E81800207CB50023104C009340F2FF15E7
:103040000193256008252561040A8DF800408DF85C
:103050000100080A8DF80200100A8DF804008DF8AE
:1030600005208DF806308DF803108DF80730012308
:103070006A460249024800F0DFF87CBDA415002032
:10308000980300202DED028B82B009F0C1FB3E4C6D
:103090000090B4F9240000EE100A3C48F8EEC00A93
:1030A00090ED0C0A08F060F93B4D9FED398ADFED99
:1030B000398A3A4F3A4E4FF4005905F1400802213F
:1030C000684608F0E5FD02F099FE05F09BFEB4F9B4
:1030D000060000224946FFF7B8FEE08005F0FCFE3E
:1030E00096ED080AB0EE481AF0EE680ABDEEC00A86
:1030F00010EE100A6083B4F9220000EE100AB8EE58
:10310000C00AFFF76BFEBDEEC00A10EE100A608425
:10311000FFF74AFF03F09CFDB4F93000D6ED180A22
:10312000404200EE100A4046B8EEC00A03F06EFCC2
:1031300000F038F800EE100AD5ED180AB8EEC00A13
:1031400030EE200A85ED180ABDEEC00A10EE100A16
:10315000E08604F0AFFAFFF72DFCF87A03280ED0D2
:1031600096ED280AB4F93610BDEEC00A10EE100A2A
:1031700002B2B4F91A0000BFFFF75CFF9FE700221C
:1031800011461046F8E70000500D0020D808002036
:103190000060C7450080E345EC1300207008002064
:1031A00004120020174810B5B0F900401648DFEDB2
:1031B000170AB0F92400A0F5D850343800EE100AF0
:1031C000B8EEC00A20EE200ADFED110A20EE200A38
:1031D00010EE100A0AF094FF41EC100B06F054FBBD
:1031E00051EC100B09F0F6FB00EE904A00EE100ACD
:1031F000F8EEE00A20EE800ABDEEC00A10EE100ADA
:1032000000B210BD7C000020500D0020DB0F4940B3
:103210000000803990F82020012A07D0022A05D02A
:10322000416A41F48021416201207047006842698F
:10323000114341610020704770B490F82040D0F8ED
:1032400000C0DCF808C0012C08D0022C06D0416A6E
:1032500041F48021416270BC012070470CF0806411
:103260000CF000652C4302D11CF0805F5FD0CCF3E2
:10327000016CBCF1020F06D9416A41F400014162C0
:1032800070BC01207047012404FA0CF41C608B68A8
:103290004FF4C0749BB1CD6804EB0C162B434D6802
:1032A00043EAC5030568AB514FF4C273066803EBEC
:1032B0000C130D69F550097D012909D00DE00D8829
:1032C000CB6804EB0C1643EA45530568AB51EBE7BA
:1032D0000168CD5845F48075CD501179D379557971
:1032E00041EA036193791B0443EA052319434FF430
:1032F000C675036805EB0C1559511178D37841EA6E
:103300000361937852781B0443EA022211434FF47D
:10331000C473026803EB0C13D150016804EB0C106A
:103320000A5842F001020A5070BC00207047416AFE
:1033300041F40011416270BC0120704790F82020D8
:10334000012A07D0022A05D0416A41F48021416256
:10335000012070474248D0F8002242F00102C0F834
:103360000022D0F8002222F47C52C0F80022D0F8CB
:1033700000224B6A42EA0322C0F800220A7D0123A0
:1033800002F01F0203FA02F2D0F81C329343C0F895
:103390001C32CB69D3B9D0F80C329343C0F80C324D
:1033A000B1F80CC04B686CF31F43D1F814C000EBAC
:1033B000CC0CCCF84032B1F808C00B686CF31F435A
:1033C000D1F814C000EBCC0CCCF84432CB69012B03
:1033D0001AD1D0F80C321343C0F80C32B1F800C047
:1033E0004B686CF31F43D1F814C000EBCC0CCCF845
:1033F0004032B1F808C0CB686CF31F43D1F814C059
:1034000000EBCC0CCCF844328B697BB1D0F80432A1
:103410001343C0F804320B6973B1D0F8143213436C
:10342000C0F81432096A01290CD010E0D0F8043237
:103430009343C0F80432EEE7D0F814329343C0F857
:103440001432EFE7D0F81C121143C0F81C12D0F868
:10345000001221F00101C0F80012002070470000A6
:1034600000640040704710B490F820C0BCF1010F18
:1034700009D0BCF1020F06D0416A41F480214162BB
:1034800010BC0120704739B1D0F800C0DCF810C082
:103490001CF0030F7DD006E0D0F800C0DCF80CC0B3
:1034A0001CF0030F7BD04FF4D87C04680CEB011C9C
:1034B00054F80C4004F004049460002C7DD004689F
:1034C00054F80C40E4085460046854F80CC00CF044
:1034D000020CC2F80CC04FF4DA7C04680CEB011C3F
:1034E00054F80C4004F00F041461046854F80C40C4
:1034F000C4F307249461046854F80CC04FEA1C4CD0
:10350000C2F814C04FF4DC72D0F800C002EB011214
:103510005CF802C083F800C0D0F800C05CF802C0BC
:103520004FEA1C2C83F801C0D0F800C05CF802C040
:103530004FEA1C4C83F802C0D0F800C05CF80220AF
:10354000120EDA704FF4DE72D0F800C002EB0112F6
:103550005CF802C083F804C0D0F800C05CF802C078
:103560004FEA1C2C83F805C0D0F800C05CF802C0FC
:103570004FEA1C4C83F806C0D0F800C05CF802206B
:10358000120EDA71F9B10068016941F020010161A0
:1035900002E00BE003E010E010BC00207047416A3D
:1035A00041F40011416210BC01207047416A41F4AE
:1035B0000011416210BC01207047046854F80C40AF
:1035C000640D146080E70068C16841F02001C160AB
:1035D000DEE72DE9F05F0546002428684669D0F84B
:1035E00004908768D0F80CA0D0F810B0D0F81880FC
:1035F00016F0010F54D017F0010F17D00121816090
:1036000017F0020F03D0284600F030FA0EE017F052
:10361000040F02D04FF4006408E017F0080F02D046
:103620004FF4805402E0284600F01FFA17F4807F20
:1036300019D029684FF48070886017F4007F03D098
:10364000284600F015FA0EE017F4806F02D044F41B
:10365000005408E017F4006F02D044F4804402E004
:10366000284600F004FA17F4803F19D029684FF477
:103670008030886017F4003F03D0284600F0FAF944
:103680000EE017F4802F02D044F4004408E017F451
:10369000002F02D044F4803402E0284600F0E9F91B
:1036A00016F0080F07D01AF0100F04D044F400747D
:1036B00029681020C86016F0040F4FF0080707D0E3
:1036C0001AF0080F04D02868C760284600F08CF96B
:1036D00016F0020F07D02868C06810F0030F02D060
:1036E000284600F083F916F0400F07D01BF0100FAA
:1036F00004D044F4806429681020086116F0200F7B
:1037000007D01BF0080F04D028680761284600F096
:1037100077F916F0100F07D02868006910F0030F32
:1037200002D0284600F06DF916F4003F08D019F0D9
:10373000100F05D0296810204860284600F062F973
:1037400016F4803F07D019F0080F04D028684760AE
:10375000284600F090F916F4004F4AD019F0040FF3
:1037600044D016F4807F04D018F0010F01D044F04B
:10377000010416F4007F04D018F0020F01D044F0C9
:10378000020416F4806F04D018F0040F01D044F046
:10379000040416F4006F29D018F0700F26D008F03A
:1037A0007000402815D006DC102809D020280AD047
:1037B000302816D10AE050280ED0602811D10EE032
:1037C00044F008040DE044F010040AE044F0200442
:1037D00007E044F0400404E044F0800401E044F4D5
:1037E00080742868816921F0700181612968042052
:1037F0004860002C05D0686A204368622846FFF7BD
:1038000031FEBDE8F09F70B50446002C03D094F85B
:10381000200010B104E0012070BD204600F0A8F89F
:103820002068016841F00101016000F0DBFC054601
:10383000206840684FF0050610F0010F11D100F02C
:10384000D1FC401B0A2807D9606A40F4003060624E
:1038500084F82060012070BD2068406810F0010FDE
:10386000EDD02068016821F00201016000F0BAFC8F
:1038700005462068406810F0020F11D000F0B2FC3D
:10388000401B0A2807D9606A40F40030606284F85F
:103890002060012070BD2068406810F0020FEDD15B
:1038A000207E01283FD02068016821F0800101605E
:1038B000607E01283DD02068016821F04001016050
:1038C000A07E01283BD02068016821F02001016022
:1038D000E07E012839D02068016841F010010160C4
:1038E000207F012837D02068016821F0080101609D
:1038F000607F012835D02068016821F00401016053
:10390000E168A0686269084321691143084361685E
:10391000491E08432168C86100206062012084F8C4
:103920002000002070BD2068016841F08001016026
:10393000BEE72068016841F040010160C0E72068EF
:10394000016841F020010160C2E72068016821F0B0
:1039500010010160C4E72068016841F008010160BE
:10396000C6E72068016841F004010160C8E7000073
:1039700010B586B0044614216846FDF7E0FA1749F1
:103980002068884227D116480021026842F0007260
:103990000260006800F0007005901148103802685D
:1039A00042F0080202600068022200F00800059060
:1039B0000320CDE90210CDE90002092004906946F8
:1039C000084800F0D9FA00220A21142000F096FCE1
:1039D000142000F085FC06B010BD0000006400401B
:1039E00040380240000C0240704700000068034964
:1039F000884201D102F0B2BE70470000006400406E
:103A000070477047704770B5044694F8200001284D
:103A100005D0606A40F400206062012070BD022081
:103A200084F820002068016821F00101016000F0A5
:103A3000D9FB05462068406810F0010F12D000F055
:103A4000D1FB401B0A2808D9606A40F4003060624C
:103A5000052084F82000012070BD2068406810F027
:103A6000010FECD10020606270BD70477047704755
:103A700070477047704770472DE9F0410446A66DC6
:103A800000F0B0FB054694F835000027022806D068
:103A90008020606584F834700120BDE8F0812068E2
:103AA000016821F0160101602068416921F0800160
:103AB0004161206C08B9A06C20B12068016821F038
:103AC000080101602068016821F00101016020689F
:103AD000006810F0010F12D000F084FB401B052895
:103AE00008D920206065032084F8350084F83470FC
:103AF000BDE8F0812068006810F0010FECD194F867
:103B00005C003F2101FA00F0B060012084F835002C
:103B100084F834700020BDE8F08190F83510022957
:103B200003D08021416501207047052180F83510C0
:103B30000068016821F00101016000207047000069
:103B40002DE9F84304464FF00008CDF80080764890
:103B50004FF416510068B0FBF1F7A56D2E6894F88C
:103B60005C00082101FA00F0304211D020680268A0
:103B700012F0040F0CD0026822F00402026094F8E4
:103B80005C0001FA00F0A860606D40F00100606523
:103B900094F85C004FF0010909FA00F0304209D0B6
:103BA0002168496911F0800F04D0A860606D40F071
:103BB0000200606594F85C1004208840304209D00F
:103BC0002168096811F0020F04D0A860606D40F010
:103BD0000400606594F85C1010208840304224D0C6
:103BE0002168096811F0080F1FD0A86020680168DB
:103BF00011F4802F0DD0006810F4002F04D0A16CB8
:103C000099B12046884710E0216C71B12046884761
:103C10000BE0016811F4807F03D1016821F00801F5
:103C20000160216C09B12046884794F85C1020207F
:103C30008840304251D02168096811F0100F4CD0F3
:103C4000A86094F8350005280DD02068016811F4AB
:103C5000802F32D0006810F4002F29D0E16B59B3C7
:103C60002046884739E02068016821F0160101608C
:103C70002068416921F080014161206C08B9A06C85
:103C800020B12068016821F00801016094F85C000F
:103C90003F2101FA00F0A86084F8359084F8348060
:103CA000216D00293ED001B02046BDE8F043084711
:103CB000616C09B1204688470FE0016811F4807FEC
:103CC00007D1016821F01001016084F8359084F873
:103CD0003480E16B09B120468847606D002821D00F
:103CE000606D10F0010F15D0052084F835002068B4
:103CF000016821F0010101600098401C0090B84269
:103D000004D82068006810F0010FF5D184F83590D0
:103D100084F83480E16C002904D001B02046BDE86D
:103D2000F0430847BDE8F883D80000202DE9F041B2
:103D3000044600F057FA0546DCB1022084F835004D
:103D4000002684F834602068016821F001010160D8
:103D50002068006810F0010F13D000F043FA401BF8
:103D6000052809D920206065032084F83500BDE8C6
:103D7000F0810120BDE8F0812068006810F0010F9B
:103D8000EBD121680868234A1040A3686268D4F820
:103D900010C01A43E36843EA0C031A4363691A43E9
:103DA000A3691A43E3691A43236A1A431043626AF8
:103DB000042A03D1236BE26A1A4310430860206887
:103DC000406920F00701606A40EA010501270428E4
:103DD0000ED1A06A0543E06A50B12046FEF782F892
:103DE00030B14020606584F835700120BDE8F08175
:103DF000206845612046FEF75BF894F85C103F228E
:103E000002FA01F18160666584F835700020BDE832
:103E1000F08100003F8010F070B504460025A66DCB
:103E200094F8340001280DD0012084F8340094F86F
:103E300035C00020BCF1010F06D084F83400022503
:103E4000284670BD022070BD4FF0020C84F835C0CA
:103E500060652046FEF785F894F85C003F2101FA82
:103E600000F0B0602068016841F016010160206C2C
:103E700020B12068016841F00801016020680168F4
:103E800041F001010160DBE770B5044600F0AAF9DA
:103E90000546B4F1FF3F02D004480078044400F026
:103EA000A1F9401BA042FAD370BD0000CC00002055
:103EB0000348016841F000410160002070470000A4
:103EC000103C02402DE9F0410646884614461D4646
:103ED0001A4F387E012807D0012038764CF2503036
:103EE000FEF7CCFC18B115E00220BDE8F081AEB1C0
:103EF000012E18D0022E1BD022462B464046FEF73C
:103F00003BFC4CF25030FEF7B9FC0D490A6822F038
:103F100001020A6000213976BDE8F081E1B2404635
:103F2000FEF71AFCEDE7A1B24046FEF73FFCE8E7DA
:103F300021464046FEF74CFCE3E700001C19002038
:103F4000103C0240002008490A6812F0004F09D0D6
:103F5000074A064B1360074B1360096811F0004FC6
:103F600000D0012070470000103C0240230167454B
:103F7000043C0240AB89EFCD2DE9F84F0022DFF879
:103F80002C92DFF82CE2DFF82CA24FF0010B032774
:103F90004FF00F080BFA02FC0B6803EA0C036345B1
:103FA0007AD10C7904F00304012C01D0022C14D135
:103FB0008568540007FA04F6B543CE6806FA04F49F
:103FC0002C438460446824EA0C0C0C79C4F300147C
:103FD000944044EA0C0CC0F804C0D1F804C037EA9D
:103FE0000C0C0CD0C4684FEA420C07FA0CF5AC4339
:103FF0008D6805FA0CFC4CEA040CC0F80CC091F872
:1040000004C00CF0030CBCF1020F12D14FEAD20C29
:1040100000EB8C04256A4FEA427C4FEADC6C08FA1C
:104020000CF6B5430E6906FA0CFC4CEA050CC4F814
:1040300020C004684FEA420C07FA0CF5AC430D7936
:1040400005F0030505FA0CFC4CEA040CC0F800C0AE
:10405000D1F804C01CF4403F1ED0D9F800C04CF485
:10406000804CC9F800C0D9F800C00CF4804CCDF8E1
:1040700000C022F0030C0CF1804505F59835D5F809
:1040800008C89407240F08FA04F62CEA06067045BF
:1040900003D14FF0000C2FE067E0A0F1804CBCF59D
:1040A000013C68D0A0F1804CBCF5023C66D0A0F188
:1040B000804CBCF5033C64D0A0F1804CBCF5043CC2
:1040C00062D0A0F1804CBCF5053C60D0A0F1804CE2
:1040D000BCF5063C5ED0A0F1804CBCF5073C5CD042
:1040E000A0F1804CBCF5083C5AD0A0F1804CBCF546
:1040F000093C58D04FF00A0C0CFA04FC4CEA060CB0
:10410000C5F808C8DAF800C02CEA030C4C6814F4AF
:10411000803F01D04CEA030CCAF800C0264CD4F80A
:1041200000C02CEA030C4D6815F4003F01D04CEAA6
:10413000030CC4F800C0214CD4F800C02CEA030CD6
:104140004D6815F4801F01D04CEA030CC4F800C080
:104150001B4CD4F800C02CEA030C4D6815F4001F6A
:1041600001D04CEA030CC4F800C0521C102AFFF422
:1041700011AFBDE8F88F4FF0010CBDE74FF0020C16
:10418000BAE74FF0030CB7E74FF0040CB4E74FF079
:10419000050CB1E74FF0060CAEE74FF0070CABE7AC
:1041A0004FF0080CA8E74FF0090CA5E7443802408F
:1041B00000000240003C0140043C0140083C01403A
:1041C0000C3C0140426921EA0203114043EA0141EB
:1041D00081617047002A01D08161704709048161C3
:1041E000704700000148806870470000CC00002044
:1041F000024881680278114481607047CC00002039
:1042000010B50B48016841F400710160016841F488
:1042100080610160016841F480710160032000F059
:10422000A1F8002000F006F800F03EF8002010BDD4
:10423000003C024010B5014688B00022192000F071
:104240005DF8192000F04CF813480024016841F093
:1042500001010160006805A900F0010006906846B0
:1042600000F0A0F900F0D2F90C494000B0FBF1F1E8
:104270000C480B4A491E026040F2E732C0E90324B1
:10428000C0E9011400F05EFE10B1012008B010BDBD
:10429000044800F0A3FEF9E74438024040420F0012
:1042A00000000140280800200C4882B0016841F459
:1042B00080410160006800F4804000900748001FC2
:1042C000016841F0805101600068002200F08050D8
:1042D00000900F21901E02B000F010B84438024048
:1042E00000280ADB00F01F01012202FA01F1400957
:1042F000800000F1E020C0F80011704710B4184BA6
:104300001B68C3F30223C3F1070CBCF1040F01D9EE
:104310004FF0040C1C1D072C01D2002300E0DB1E13
:10432000012404FA0CFCACF1010C0CEA01019940E7
:1043300004FA03F35B1E1A401143002806DB00F168
:10434000E020090180F8001410BC704700F00F0055
:1043500000F1E020090180F8141D10BC7047000036
:104360000CED00E000F00700064A11684FF6FF036D
:10437000194041EA002040F0FD7040F0806010607C
:10438000704700000CED00E0BFF34F8F0548016857
:10439000054A01F4E06111430160BFF34F8F00BF94
:1043A000FDE700000CED00E00400FA05F8B51B483D
:1043B000016841F080510160006800F08050009079
:1043C000174F01263E64FFF70DFF0546154C606848
:1043D00010F4803F0BD1FFF705FF401BB0F57A7F4B
:1043E00001D90320F8BD606810F4803FF3D07E64EB
:1043F000FFF7F8FE0546606810F4003F0BD1FFF7A9
:10440000F1FE401BB0F57A7F01D90320F8BD60684A
:1044100010F4003FF3D00020F8BD00004038024007
:1044200000000E42007000402DE9F04704460D46A2
:10443000002C13D0DFF85491D9F80000EFB200F04F
:104440000F00A8420DD289F80070D9F8000000F0E2
:104450000F00A84205D00120BDE8F0870120BDE88B
:10446000F08720684A4E10F0020F14D010F0040FAD
:1044700003D0306840F4E0503060207810F0080F2E
:1044800003D0306840F4604030603068A16820F0AC
:10449000F00008433060207810F0010F3ED06068D3
:1044A0003C49012808D002280DD003280BD0096808
:1044B00011F0020F28D00AE0096811F4003F06D17C
:1044C0000120BDE8F087096811F0007F19D031683C
:1044D00021F0030108433060FFF784FE8046306816
:1044E000616800F00C00B0EB810F17D041F2883A00
:1044F000FFF778FEA0EB0800504508D90320BDE87F
:10450000F0870120BDE8F0870120BDE8F087306822
:10451000616800F00C00B0EB810FE9D1D9F8000020
:1045200000F00F00A8420AD989F80070D9F80000FD
:1045300000F00F00A84202D00120BDE8F0872078EB
:1045400010F0040F05D03068E16820F4E050084313
:104550003060207810F0080F06D03068216920F410
:10456000604040EAC100306000F060F831680A4AFB
:10457000C1F30311515CC84008490860084800684D
:10458000FFF758FE0020BDE8F0870000003C024025
:104590000838024000380240A4E90008D800002092
:1045A000D00000200F2202600B4A136803F00303BF
:1045B0004360136803F0F0038360136803F4E0536F
:1045C000C360126802F46042D208026103480068C6
:1045D00000F00F000860704708380240003C0240BD
:1045E0000148006870470000D800002000B5FFF7C0
:1045F000F7FF04490968044AC1F38221515CC840AD
:1046000000BD000008380240B4E9000800B5FFF71B
:10461000E7FF04490968044AC1F34231515CC840CC
:1046200000BD000008380240B4E9000810B5174882
:10463000006810F00C01164816D0164B042912D051
:10464000082911D1144C216801F03F02216811F4AE
:10465000800F0AD02068C0F38810A0FB030100235C
:10466000FCF760FB09E0184610BD21680023C1F388
:104670008811A1FB0001FCF755FB2168C1F3014142
:10468000491C4900B0FBF1F010BD000008380240A1
:104690000024F400001BB700043802402DE9F84F55
:1046A0000446002C12D02078FB4E10F0010FA6F12A
:1046B000040563D0301D016801F00C0104290CD001
:1046C000006800F00C00082803D010E00120BDE8CD
:1046D000F88F306810F4800F09D0286810F4003F7C
:1046E0004CD06068002849D10120BDE8F88F60688F
:1046F000B0F5803F14D0B0F5A02F16D0286820F474
:1047000080302860286820F480202860606810B31A
:10471000FFF768FD0746286810F4003F0ED02DE033
:10472000286840F480302860F0E7286840F4802052
:104730002860286840F480302860E7E7FFF752FDE2
:10474000C01B642802D90320BDE8F88F286810F444
:10475000003FF3D012E0FFF745FD0746286810F44C
:10476000003F0BD0FFF73EFDC01B642802D9032099
:10477000BDE8F88F286810F4003FF3D12078C74FC8
:1047800010F0020F4FF0000957D0C548016811F032
:104790000C0F14D0006800F00C00082803D130681A
:1047A00010F4800F0BD0E06880B301203860FFF771
:1047B00019FD8046286810F0020F12D01EE028680C
:1047C00010F0020F05D0E068012802D00120BDE8FA
:1047D000F88F2868216920F0F80040EAC1002860BD
:1047E0002BE0FFF7FFFCA0EB0800022802D9032012
:1047F000BDE8F88F286810F0020FF2D02868216910
:1048000020F0F80040EAC100286016E0FFE7C7F892
:104810000090FFF7E7FC8046286810F0020F0CD0EC
:10482000FFF7E0FCA0EB0800022802D90320BDE856
:10483000F88F286810F0020FF2D1207810F0080FDE
:1048400035D09848DFF860A26169C1B101210160EB
:10485000FFF7C8FC8046DAF8000010F0020F26D1FE
:10486000FFF7C0FCA0EB0800022802D90320BDE836
:10487000F88FDAF8000010F0020FF1D017E0C0F85E
:104880000090FFF7AFFC8046DAF8000010F0020F4E
:104890000DD0FFF7A7FCA0EB0800022802D90320E7
:1048A000BDE8F88FDAF8000010F0020FF1D120789F
:1048B00010F0040F71D04FF000087C48006810F031
:1048C000805F0AD17948016841F080510160006839
:1048D00000F0805000904FF00108DFF8D4B1DBF811
:1048E000000010F4807F1BD1DBF8000040F48070E2
:1048F000CBF80000FFF776FC8246DBF8000010F4EE
:10490000807F0DD1FFF76EFCA0EB0A00022802D9D0
:104910000320BDE8F88FDBF8000010F4807FF1D0B1
:10492000A068DFF890B1012818D005281DD0DBF869
:10493000000020F00100CBF80000DBF8000020F0C0
:104940000400CBF80000A06840B3FFF74BFC8246A0
:10495000DBF8000010F0020F14D03EE0DBF800009E
:1049600040F00100CBF80000EDE7DBF8000040F07C
:104970000400CBF80000DBF8000040F00100CBF8A9
:104980000000E0E7FFF72EFCA0EB0A0141F28830BF
:10499000814204D90320BDE8F88F26E005E0DBF86A
:1049A000000010F0020FEDD017E0FFF71BFC82466D
:1049B000DBF8000010F0020F0FD0FFF713FCA0EBA4
:1049C0000A0141F28830814202D90320BDE8F88F04
:1049D000DBF8000010F0020FEFD1B8F1010F04D1A5
:1049E0003248016821F080510160A069F0B32C4980
:1049F00009684FF0FF3801F00C01082966D0022841
:104A000010D0C7F86090FFF7EDFB0446286810F05F
:104A1000007F2BD0FFF7E6FB001B022851D90320B3
:104A2000BDE8F88FC7F86090FFF7DCFB8146286887
:104A300010F0007F0CD0FFF7D5FBA0EB0900022897
:104A400002D90320BDE8F88F286810F0007FF2D16A
:104A5000216AE069A26A0843616A08EB520289018F
:104A600041EA0241084394F82C1000E055E040EA86
:104A70000160306001203866FFF7B4FB0446286807
:104A800010F0007F49D1FFF7ADFB001B022813D9BE
:104A90000320BDE8F88F00000438024000004742C0
:104AA00008380240800E47427438024040380240C5
:104AB0000070004070380240286810F0007FE2D09B
:104AC0002BE0286810F0007FA4D126E0012822D036
:104AD0003068E26900F4800191421AD1226A00F044
:104AE0003F01914215D147F6C071626A0140B1EBB6
:104AF000821F0ED1A26A00F4403108EB5202B1EBE2
:104B0000024F06D194F82C1000F07060B0EB016FEA
:104B100003D00120BDE70120BBE70020B9E770B555
:104B20000446002C09D0606A002540B1256165610A
:104B3000A56294F8510040B10CE0012070BD60689E
:104B4000B0F5827FF4D0E561F2E784F8505020465A
:104B500000F044F8022084F851002068016821F038
:104B600040010160A088218900F4827001F40441B1
:104B70000843A18901F400610843217C01F002018E
:104B80000843217D01F001010843218B01F40071EC
:104B90000843217F01F03801084394F8201001F008
:104BA00080010843218D01F4005108432168086009
:104BB000A169042000EA114094F8241001F01001CA
:104BC0000143206841602068C16921F40061C1612E
:104BD0006565012084F85100002070BD10B586B0D5
:104BE000044614216846FCF7AAF914492068884253
:104BF00021D113480021026842F48012026000684B
:104C000000F4801005900E481438026842F020022B
:104C10000260006800F0200005904FF46070009082
:104C20000220CDE90101032003900520049069468C
:104C30000448FFF7A1F906B010BD00000050014084
:104C400044380240001402402DE9F84F04460A9E01
:104C50008A4693461F4601254FF0000894F85000FD
:104C600001280ED0012084F85000FFF7BBFA8146DE
:104C700094F85100616801280ED0B1F5827F07D108
:104C800002E00220BDE8F88FA16809B9042803D02A
:104C90004FF0020800F0CBB8BAF1000F1DD0BBF105
:104CA000000F1AD0380018D094F85100042802D010
:104CB000052084F8510000206065C4F838B0E7870B
:104CC000A787C4F830A0E786A786206460642068C0
:104CD000016811F0400F03D006E04FF00108A6E094
:104CE000016841F040010160E068B0F5006F05D057
:104CF0006068002848D0012F46D07EE0606808B187
:104D0000012F3AD1206B21680088C860206B801C7D
:104D10002063E08E401EE0862FE02068816811F05D
:104D2000020F0DD0E18E59B1012D09D1216B0988F7
:104D3000C160206B801C2063E08E401EE086002551
:104D40002068816811F0010F0BD0E18F49B1C06874
:104D5000A16B0880A06B801CA063E08F401EE087E1
:104D60000125FFF73FFAA0EB0900B04205D3B6F1E9
:104D7000FF3F02D04FF0030859E0E08E0028CCD16D
:104D8000E08F0028C9D13EE0206B216800780873CD
:104D9000206B401C2063E08E401EE0862DE02068E2
:104DA000816811F0020F0DD0E18E59B1012D09D1AA
:104DB000216B09780173206B401C2063E08E401E3C
:104DC000E08600252068816811F0010F0BD0E18F8B
:104DD00049B1C068A16B0870A06B401CA063E08F54
:104DE000401EE0870125FFF7FDF9A0EB0900B04266
:104DF00002D3B6F1FF3F11D186B1E08E0028CED1AB
:104E0000E08F0028CBD14A463146204602F0B4FB61
:104E100038B14FF001082020606508E04FF003082A
:104E200005E0A06818B92068C1688068009001207A
:104E300084F85100002084F850004046BDE8F88F07
:104E40007047704790F83C20012A2CD0012280F84E
:104E50003C20CA680023D1F808C022F4407242EA1C
:104E60000C02D1F804C022F4806242EA0C02D1F8AC
:104E700000C022F4006242EA0C02D1F810C022F411
:104E8000805242EA0C02D1F814C022F4005242EAE5
:104E90000C02C96922F4804211430268516480F80F
:104EA0003C30002070470220704730B490F83C201E
:104EB000012A44D0012480F83C40022280F83D20A1
:104EC0000268D2F804C093682CF0700C0D6845EAB3
:104ED0000C0CC2F804C00268A2F1804CBCF5803C06
:104EE00020D0B2F1804F1DD0A2F1804CBCF5806C77
:104EF00018D0A2F1804CBCF5006C13D0A2F1804C0C
:104F0000BCF5406C0ED0A2F1804CBCF5823C09D0BF
:104F1000A2F1804CBCF5A03C04D0A2F1804CBCF5C1
:104F2000C05C04D123F0800349681943916080F884
:104F30003D40002180F83C1030BC0020704730BC60
:104F40000220704710B50446002C03D094F83D00B1
:104F500010B107E0012010BD002084F83C0020467D
:104F600000F01EF8022084F83D00211D206802F0A8
:104F700087FD012084F8460084F83E0084F83F0055
:104F800084F8400084F8410084F8420084F843002B
:104F900084F8440084F8450084F83D00002010BDEA
:104FA00008B500680B49884212D10B48016841F0EE
:104FB000020101600068002200F00200009005215B
:104FC0001D20FFF79BF9BDE808401D20FFF788B9B9
:104FD00008BD0000000400404038024090F83D1039
:104FE000012901D001207047022180F83D1001689D
:104FF000CA6842F00102CA600068A0F18041B1F5C0
:10500000803126D0B0F1804F23D0A0F18041B1F59E
:1050100080611ED0A0F18041B1F5006119D0A0F1EE
:105020008041B1F5406114D0A0F18041B1F58231E9
:105030000FD0A0F18041B1F5A0310AD0A0F180419C
:10504000B1F5C05105D0016841F0010101600020B7
:105050007047816801F007010629F8D0016841F026
:1050600001010160F3E770B50446002594F83C00A7
:10507000012818D0012684F83C60022084F83D0005
:105080002068826822F0770222F47F4282600868FA
:10509000502839D00EDC202854D006DC002851D00E
:1050A000102811D14EE0022070BD30284AD040288F
:1050B0000AD13DE0602831D070280DD0B0F5805F76
:1050C00003D0B0F5005F13D0012584F83D600020C7
:1050D00084F83C00284670BDCB684A68896820681F
:1050E00002F043FD2068816841F077018160ECE7C0
:1050F000CB684A688968206802F037FD20688168BB
:1051000041F480418160E0E7CA684968206802F0A4
:105110001BFE5021206802F033FDD6E7CA684968BB
:10512000206802F024FE6021206802F029FDCCE70F
:10513000CA684968206802F007FE4021206802F032
:105140001FFDC2E722680146104602F019FDBCE7C8
:10515000704770B50446206801694FF0000511F0F2
:10516000020F17D0C16811F0020F13D0E91E0161C0
:10517000012020772068806910F0030F03D02046BB
:10518000FFF7E6FF05E0204600F010F9204600F0AA
:10519000D9F925772068016911F0040F18D0C1688A
:1051A00011F0040F14D06FF0040101610220207788
:1051B0002068806910F4407F03D02046FFF7C8FFC5
:1051C00005E0204600F0F2F8204600F0BBF9257714
:1051D0002068016911F0080F18D0C16811F0080F9C
:1051E00014D06FF008010161042020772068C069A5
:1051F00010F0030F03D02046FFF7AAFF05E020467A
:1052000000F0D4F8204600F09DF925772068016968
:1052100011F0100F18D0C16811F0100F14D06FF0FA
:1052200010010161082020772068C06910F4407FD8
:1052300003D02046FFF78CFF05E0204600F0B6F8CB
:10524000204600F07FF925772068016911F0010FF1
:1052500009D0C16811F0010F05D06FF001010161A3
:10526000204600F0DFF92068016911F0800F09D0B5
:10527000C16811F0800F05D06FF0800101612046F8
:10528000FFF7DEFD2068016911F0400F09D0C16809
:1052900011F0400F05D06FF040010161204600F091
:1052A000CBF92068016911F0200F0BD0C16811F013
:1052B000200F07D06FF0200101612046BDE870404B
:1052C000FFF7BFBD70BD000030B587B004461421A4
:1052D0006846FBF734FE23682B4C00212B48022242
:1052E000A34210D1036843F002030360006800F09A
:1052F0000200059020200090CDE90121CDE90312A4
:105300006946234812E0234D0324AB4212D10368BF
:1053100043F0010303600068009400F00100059071
:10532000CDE90121CDE9031269461B48FEF724FEB1
:1053300007B030BD194DAB4210D1036843F4807300
:105340000360006800F48070059004200090CDE9AF
:105350000121CDE9031469461148E7E7114CA34246
:10536000E6D1036843F080030360006800F080002A
:10537000059040200090CDE901210920CDE90310DE
:1053800069460948D2E70000000400403038024076
:1053900000040240000C00400000024000040140F4
:1053A0000020024000180040001C0240704770B509
:1053B00004460D46002694F83C0001280FD0012039
:1053C00084F83C006AB1042A1FD0082A32D00C2A83
:1053D00044D00126002084F83C00304670BD0220F5
:1053E00070BD2946206802F0D3FB2068816941F036
:1053F000080181612068816921F0040181612068D0
:1054000081692A6911438161E4E72946206802F035
:10541000F7FB2068816941F400618161206881693E
:1054200021F480618161206881692A6941EA022151
:105430008161CFE72946206802F01EFC2068C1691F
:1054400041F00801C1612068C16921F00401C16116
:105450002068C1692A691143C161BBE729462068F8
:1054600002F046FC2068C16941F40061C161206816
:10547000C16921F48061C1612068C1692A6941EA7A
:105480000221C161A6E710B50446002C03D094F8B0
:105490003D0010B107E0012010BD002084F83C0061
:1054A000204600F01FF8022084F83D00211D2068EE
:1054B00002F0E6FA012084F8460084F83E0084F801
:1054C0003F0084F8400084F8410084F8420084F8EA
:1054D000430084F8440084F8450084F83D0000202F
:1054E00010BD000008B5134A01681348914207D166
:1054F000016841F008010160006800F008000BE05D
:105500000E4A91420AD10C48001D016841F0020187
:105510000160006800F00200009008BD084A914256
:10552000FBD1016841F040010160006800F04000DB
:10553000F2E70000000C0040403802400004014047
:10554000001800407047000010B50446002909D03B
:1055500004290AD008290BD094F8410001280AD068
:10556000012010BD94F83E00F8E794F83F00F5E7FD
:1055700094F84000F2E70220D9B3042947D0082963
:1055800048D084F841000122206802F0DFFA234A63
:1055900020682349904201D0884203D1436C43F4F0
:1055A000004343642068904224D0B0F1804F21D062
:1055B000A0F18042B2F580621CD0A0F18042B2F529
:1055C000006217D0A0F18042B2F5406212D088424A
:1055D00010D0A0F18041B1F5A0310BD0A0F18041F5
:1055E000B1F5C05106D0016841F001010160002011
:1055F00010BD09E0816801F007010629F7D00168B4
:1056000041F001010160F2E784F83E00BBE784F855
:105610003F00B8E784F84000B5E700000000014013
:105620000004014000680349884201D1FEF7E0BD53
:1056300070470000000001407047704710B50446F5
:1056400020684069C0F3C01094F83D10212911D1A1
:1056500080B12068143050E8001F21F0800140E83C
:105660000012002AF5D1606B08B1FEF705FA20465A
:1056700002F0ADFC20684069C0F3801094F83E1041
:10568000222911D180B12068143050E8001F21F088
:10569000400140E80012002AF5D1A06B08B1FEF7E6
:1056A000EBF9204602F05FFC002010BD70470000BF
:1056B000F8B5044622681068D168536900F00F0CF1
:1056C000BCF1000F0AD110F0200F07D011F0200F0D
:1056D00004D02046BDE8F84002F087BC0025BCF1AC
:1056E000000F75D003F0010C01F490765CEA060619
:1056F0006ED010F0010F06D011F4807F03D0226C21
:1057000042F00102226410F0040F06D013F0010FE2
:1057100003D0226C42F00202226410F0020F06D085
:1057200013F0010F03D0226C42F00402226410F047
:10573000080F08D001F0200252EA0C0203D0226CBC
:1057400042F008022264226C002A35D010F0200FAB
:1057500005D011F0200F02D0204602F046FC206850
:105760004069C0F38010216C11F0080F00D148B3DC
:10577000204602F0F8FB2068406910F0400F1CD072
:105780002068143050E8001F21F0400140E800126A
:10579000002AF5D1A06B60B15C490165A06BFEF7F2
:1057A000BCF9002808D0A06B016D01B0BDE8F04045
:1057B00008472046FFF77AFFF8BD2046FFF776FF3F
:1057C000F8BD05E0FFE72046FFF770FF2564F8BD50
:1057D000236B012B7ED110F0100F7BD011F0100F36
:1057E0007ED010685068009050694FF0200310F090
:1057F000400F43D0A16B0868406880B20028E6D013
:10580000A28D8242E3D9E085C869B0F5807F2DD0B2
:1058100020680C3050E8001F21F4807140E800122D
:10582000002AF5D12068143050E8001F21F0010152
:1058300040E80012002AF5D12068143050E8001F1B
:1058400021F0400140E80012002AF5D184F83E30F2
:10585000256320680C3050E8001F21F0100140E85B
:105860000012002AF5D1A06BFEF706F9A08DE18D9C
:10587000401A81B22046FFF7E0FEF8BDA08DE18D11
:10588000401A81B2E08D0028F7D00029F5D02068B9
:105890000C3050E8002F22F4907240E8002CBCF14C
:1058A000000FF4D12068143050E8002F22F00102DC
:1058B00040E8002CBCF1000FF4D184F83E302563A1
:1058C00020680C3050E8002F22F0100240E800233E
:1058D000002B00E004E0F3D12046FFF7AEFEF8BD58
:1058E00010F0800F07D011F0800F04D02046BDE8E3
:1058F000F84002F0D7BC10F0400FF0D011F0400F8C
:10590000EDD02046BDE8F84002F054BB217E0008EF
:1059100070B50446002C04D094F83D00002510B169
:1059200006E0012070BD84F83C50204600F022F8CB
:10593000242084F83D002068C16821F40051C16032
:10594000204602F0BFFB2068016921F4904101610B
:105950002068416921F02A0141612068C16841F451
:105960000051C1602564202084F83D0084F83E0089
:10597000002070BD2DE9F04F87B004461421684621
:10598000FBF7DDFA9E489D49103823689C4A0226A1
:10599000002507154FF003084FF0080A4FF0206B61
:1059A0004FF480798B4233D1116841F0004111608E
:1059B000116801F000410591016841F0100101609A
:1059C0000068CDE9008600F01000CDE904A0CDE923
:1059D000025869468B48FEF7CFFA8C4E8A483060F1
:1059E000C6E901B5C6E903577561C6E906593562CE
:1059F00030467562FEF79AF908B1FCF780FEA6639F
:105A0000002205215320B463FEF778FC5320A3E065
:105A10007B49DFF8FCC1091D4FF0070E634534D107
:105A20000A6842F010020A60096801F0100105914D
:105A3000016841F002010160006802AA00F0020062
:105A40000590C020CDE9000682E8204169467148F2
:105A5000FEF792FA6D4E7048603630604FF000608D
:105A6000C6E90105C6E903577561C6E90659801202
:105A7000C6E908053046FEF759F908B1FCF73FFEC4
:105A8000A663B46307B0BDE8F08FDFF890C163454B
:105A900065D1116841F480211160116801F4802101
:105AA0000591016841F008010160006802AB00F057
:105AB000080005904FF40070CDE90006F24683E837
:105AC000400569465648FEF757FA02ABCB4683E8D5
:105AD0002005CDE9009669465148FEF74DFADFF8FA
